:020000040800F2
:10000000000002201D7E0008490A0008510A00086D
:10001000590A0008610A0008690A00080000000087
:10002000000000000000000000000000710A00084D
:100030007F0A0008000000008D0A00089B0A0008E3
:10004000717E0008717E0008717E0008717E0008D4
:10005000717E0008717E0008717E0008717E0008C4
:10006000717E0008717E0008717E0008A90A0008F0
:10007000BD0A0008717E0008717E0008717E0008CC
:10008000717E0008717E0008717E0008D10A0008A8
:10009000717E0008E50A0008717E0008717E000884
:1000A000717E0008717E0008717E0008717E000874
:1000B000717E0008717E0008717E0008717E000864
:1000C000717E0008717E0008717E0008717E000854
:1000D000717E0008717E0008717E0008F90A000830
:1000E000717E0008717E000800000000717E00082B
:1000F000717E0008717E0008717E0008717E000824
:10010000717E0008717E0008717E0008717E000813
:10011000717E0008717E0008717E0008717E000803
:10012000717E0008717E0008717E0008717E0008F3
:10013000717E0008717E0008717E00080D0B0008BA
:1001400000000000000000000000000000000000AF
:10015000717E0008717E0008717E0008717E0008C3
:10016000717E0008717E0008717E0008717E0008B3
:10017000717E0008717E0008717E0008000000009A
:10018000717E0008717E0008717E0008717E000893
:10019000717E0008717E0008717E0008717E000883
:1001A000717E0008717E0008717E0008717E000873
:1001B000717E0008717E0008717E0008717E000863
:1001C000717E0008717E0008717E0008717E000853
:1001D000717E0008717E0008717E0008717E000843
:1001E000717E0008717E0008717E0008717E000833
:1001F000717E0008717E0008717E0008717E000823
:10020000717E0008717E0008717E0008717E000812
:10021000717E0008717E0008717E0008717E000802
:10022000717E0008717E0008717E000800000000E9
:10023000717E0008717E000800000000717E0008D9
:10024000717E0008717E0008717E0008717E0008D2
:10025000717E0008717E0008717E0008717E0008C2
:10026000717E0008717E0008717E0008717E0008B2
:10027000717E0008717E0008717E00080000000099
:10028000717E0008717E0008717E00080000000089
:0802900000000000717E00086F
:1002980053B94AB9002908BF00281CBF4FF0FF31E5
:1002A8004FF0FF3000F00CB8ADF1080C6DE904CE4A
:1002B80007F0DCFDDDF804E0DDE9022304B0704757
:1002C800704700BF80B500AF00F040FC00F0C8F8F0
:1002D80000F05EF900F092FA00F082F94FF4004164
:1002E800044802F0C4FF4FF4FA7000F0C1FC00BFEC
:1002F800F4E700BF0000025880B400AF72B600BF38
:1003080000BFFDE780B400AF434BD3F88830424AC2
:1003180043F47003C2F88830404B1B6803F00F03A6
:10032800062B07D83D4B1B6823F00F033B4A43F0CD
:10033800070313603A4B1B68394A43F00103136003
:10034800374B00221A61364B1A683549354B134032
:100358000B60324B1B6803F00803002B07D02F4BB0
:100368001B6823F00F032D4A43F0070313602C4B3F
:1003780000229A612A4B0022DA61294B00221A6274
:10038800274B294A9A62264B284ADA62244B284A84
:100398001A63234B00225A63214B254A9A63204B48
:1003A8000022DA631E4B224A1A641D4B00225A644B
:1003B8001B4B1B681A4A23F480231360184B002236
:1003C8001A661C4B1A681C4B1340B3F1005F02D22B
:1003D8001A4B01221A60124BD3F8D43003F480531D
:1003E800002B13D10E4BD3F8D4300D4A43F480536D
:1003F800C2F8D430124B43F2D2021A60084BD3F839
:10040800D430074A23F48053C2F8D43000BFBD4625
:100418005DF8047B704700BF00ED00E0002000524B
:10042800004402587FEDF6EA000202020000FF01D4
:10043800800201010010005C0000FFFF08810051EC
:100448000040005280B400AF00BFBD465DF8047B99
:10045800704780B400AF00BFBD465DF8047B7047AD
:1004680080B58CB000AF07F11C0300221A605A60F7
:100478009A60DA601A61434BD3F8E030414A43F09E
:100488001003C2F8E0303F4BD3F8E03003F010031C
:10049800BB61BB693B4BD3F8E0303A4A43F00403F5
:1004A800C2F8E030374BD3F8E03003F004037B6147
:1004B8007B69344BD3F8E030324A43F48073C2F896
:1004C800E030304BD3F8E03003F480733B613B6994
:1004D8002C4BD3F8E0302B4A43F08003C2F8E030CD
:1004E800284BD3F8E03003F08003FB60FB68254B12
:1004F800D3F8E030234A43F00203C2F8E030214B3E
:10050800D3F8E03003F00203BB60BB681D4BD3F89F
:10051800E0301C4A43F00103C2F8E030194BD3F82D
:10052800E03003F001037B607B6801220421164858
:1005380002F084FE01224FF40041144802F07EFECE
:100548000423FB6101233B6200237B620023BB621F
:1005580007F11C0319460C4802F0C0FC4FF4004395
:10056800FB6101233B6200237B620023BB6207F12E
:100578001C031946054802F0B1FC00BF3037BD46E0
:1005880080BD00BF00440258001002580000025805
:1005980080B582B000AF114BD3F8D8300F4A43F082
:1005A8000103C2F8D8300D4BD3F8D83003F001035B
:1005B8007B607B68002200210B2000F058FC0B2098
:1005C80000F06FFC002200210C2000F050FC0C20F1
:1005D80000F067FC00BF0837BD4680BD00440258E4
:1005E80080B500AF2E4B2F4A1A602D4B00229A601F
:1005F8002B4B0022DA602A4B01221A74284B002266
:100608005A74274B01229A74254B02225A61244BB3
:1006180001229A61224B1322DA61214B05221A62C8
:100628001F4B02225A621E4B01229A621C4B132254
:10063800DA621B4B05221A63194B00225A63184BC6
:1006480001229A63164B0022DA63154B03221A64BF
:10065800134B04225A64124B00229A64104B042252
:10066800DA640F4B00221A650D4B04225A650C4BB5
:1006780000229A650A4B0022DA65094B03221A66A2
:10068800074B00225A66064B04229A66044802F079
:1006980009FE0346002B01D0FFF72EFE00BF80BDE8
:1006A8001000002000A0004080B5BCB000AF78600A
:1006B80007F1DC0300221A605A609A60DA601A6156
:1006C80007F11803C0220021184607F02DFD7B68AA
:1006D8001B68464A934240F085804FF400424FF031
:1006E8000003C7E906234FF08053C7F8883007F1A5
:1006F8001803184600F0C6FD0346002B01D0FFF78B
:10070800FBFD3B4BD3F8EC30394A43F48073C2F815
:10071800EC30374BD3F8EC3003F480737B617B69A2
:10072800334BD3F8E030324A43F48073C2F8E030F8
:100738002F4BD3F8E03003F480733B613B692C4BBB
:10074800D3F8E0302A4A43F00203C2F8E030284BDD
:10075800D3F8E03003F00203FB60FB684FF400734A
:10076800C7F8DC300223C7F8E0300023C7F8E430CC
:100778000023C7F8E8300923C7F8EC3007F1DC0399
:1007880019461C4802F0AAFB4FF40073C7F8DC3086
:100798000223C7F8E0300023C7F8E4300023C7F885
:1007A800E8300923C7F8EC3007F1DC031946124892
:1007B80002F094FB00220021132000F058FB1320C4
:1007C80000F06FFB00220021152000F050FB1520DF
:1007D80000F067FB002200213F2000F048FB3F208B
:1007E80000F05FFB00BFF037BD4680BD00A00040B1
:1007F80000440258002002580004025880B500AF97
:10080800224B234A1A60214B4FF4E1325A601F4BA6
:1008180000229A601D4B0022DA601C4B00221A61EC
:100828001A4B0C225A61194B00229A61174B00226D
:10083800DA61164B00221A62144B00225A62134BDB
:1008480000229A62114803F093FB0346002B01D063
:10085800FFF752FD00210D4804F0ECFF0346002B82
:1008680001D0FFF749FD0021084805F021F80346AB
:10087800002B01D0FFF740FD044804F0A2FF034617
:10088800002B01D0FFF738FD00BF80BDB00000206D
:100898000048004080B5BAB000AF786007F1D403D3
:1008A80000221A605A609A60DA601A6107F1100330
:1008B800C0220021184607F037FC7B681B68594A9C
:1008C800934240F0AA804FF002024FF00003C7E9BC
:1008D80004230023C7F8883007F11003184600F0F6
:1008E800D1FC0346002B01D0FFF706FD4E4BD3F891
:1008F800E8304D4A43F48023C2F8E8304A4BD3F835
:10090800E83003F48023FB60FB68474BD3F8E03002
:10091800454A43F00203C2F8E030434BD3F8E030D5
:1009280003F00203BB60BB684FF44063C7F8D430E0
:100938000223C7F8D8300023C7F8DC300023C7F8F3
:10094800E0300723C7F8E43007F1D40319463748E5
:1009580002F0C4FA364B374A1A60354B2D225A60DA
:10096800334B00229A60324B0022DA60304B4FF44E
:1009780080621A612E4B00225A612D4B00229A6127
:100988002B4B0022DA612A4B00221A62284B0022E4
:100998005A62274805F018F80346002B01D0FFF7E4
:1009A800ABFC7B68224AC3F88020214A7B689363AA
:1009B800214B224A1A60204B2E225A601E4B40229D
:1009C8009A601D4B0022DA601B4B4FF480621A615B
:1009D800194B00225A61184B00229A61164B0022CB
:1009E800DA61154B00221A62134B00225A62124830
:1009F80004F0EAFF0346002B01D0FFF77DFC7B687B
:100A08000D4ADA670C4A7B6893630022002127208D
:100A180000F02DFA272000F044FA00BFE837BD4661
:100A280080BD00BF0048004000440258000402583E
:100A38004401002010000240BC01002028000240B0
:100A480080B400AF00BFFDE780B400AF00BFFDE792
:100A580080B400AF00BFFDE780B400AF00BFFDE782
:100A680080B400AF00BFFDE780B400AF00BFBD4653
:100A78005DF8047B704780B400AF00BFBD465DF8E9
:100A8800047B704780B400AF00BFBD465DF8047BAF
:100A9800704780B500AF00F0CBF800BF80BD000004
:100AA80080B500AF024806F04FF800BF80BD00BF18
:100AB8004401002080B500AF024806F045F800BFA9
:100AC80080BD00BFBC01002080B500AF024802F025
:100AD800C7FD00BF80BD00BF1000002080B500AF7B
:100AE800024802F0BDFD00BF80BD00BF100000201D
:100AF80080B500AF024803F08BFA00BF80BD00BF8D
:100B0800B000002080B500AF024802F0A9FD00BF88
:100B180080BD00BF1000002080B483B000AF0A4B36
:100B2800D3F8F430084A43F00203C2F8F430064B15
:100B3800D3F8F43003F002037B607B6800BF0C3706
:100B4800BD465DF8047B70470044025880B582B00A
:100B580000AF032000F080F900F0BEF90246154B03
:100B68009B691B0A03F00F031349CB5C03F01F03B7
:100B780022FA03F37B600F4B9B6903F00F030E4AC5
:100B8800D35C03F01F037A6822FA03F30B4A13605D
:100B98000B4A7B6813600F2000F014F80346002B03
:100BA80001D0012302E0FFF7B7FF002318460837FA
:100BB800BD4680BD00440258F081000804000020B2
:100BC8000000002080B582B000AF7860154B1B781C
:100BD800002B01D1012321E0134B1A68114B1B781C
:100BE80019464FF47A73B3FBF1F3B2FBF3F31846EB
:100BF80000F065F90346002B01D001230EE07B6865
:100C08000F2B0AD8002279684FF0FF3000F02FF937
:100C1800064A7B681360002300E001231846083762
:100C2800BD4680BD0C000020000000200800002008
:100C380080B400AF064B1B781A46064B1B6813445A
:100C4800044A136000BFBD465DF8047B704700BFCF
:100C58000C0000203402002080B400AF034B1B6856
:100C68001846BD465DF8047B704700BF340200207B
:100C780080B584B000AF7860FFF7EEFFB8607B689E
:100C8800FB60FB68B3F1FF3F05D00A4B1B781A469F
:100C9800FB681344FB6000BFFFF7DEFF0246BB683A
:100CA800D31AFA689A42F7D800BF00BF1037BD467A
:100CB80080BD00BF0C00002080B485B000AF786014
:100CC8007B6803F00703FB600B4BDB68BB60BA680B
:100CD8004FF6FF031340BB60FB681A02BB681A4358
:100CE800064B1343BB60044ABB68D36000BF14378C
:100CF800BD465DF8047B704700ED00E00000FA0592
:100D080080B400AF044BDB681B0A03F007031846E6
:100D1800BD465DF8047B704700ED00E080B483B009
:100D280000AF0346FB80B7F90630002B0BDBFB88CE
:100D380003F01F020749B7F906305B09012000FAE2
:100D480002F241F8232000BF0C37BD465DF8047B52
:100D5800704700BF00E100E080B483B000AF0346F5
:100D68003960FB80B7F90630002B0ADB3B68DAB242
:100D78000C49B7F906301201D2B20B4483F80023AC
:100D88000AE03B68DAB20849FB8803F00F03043B2A
:100D98001201D2B20B441A7600BF0C37BD465DF87B
:100DA800047B704700E100E000ED00E080B489B00A
:100DB80000AFF860B9607A60FB6803F00703FB6175
:100DC800FB69C3F10703042B28BF0423BB61FB693C
:100DD8000433062B02D9FB69033B00E000237B6147
:100DE8004FF0FF32BB6902FA03F3DA43BB681A40DB
:100DF8007B699A404FF0FF317B6901FA03F3D943CD
:100E08007B680B40134318462437BD465DF8047BC6
:100E18007047000080B582B000AF78607B68013B06
:100E2800B3F1807F01D301230FE00A4A7B68013BBD
:100E380053600F214FF0FF30FFF78EFF054B002264
:100E48009A60044B07221A60002318460837BD46EB
:100E580080BD00BF10E000E080B582B000AF7860D0
:100E68007868FFF729FF00BF0837BD4680BD80B509
:100E780086B000AF0346B9607A60FB81FFF740FF98
:100E880078617A68B9687869FFF790FF0246B7F920
:100E98000E3011461846FFF75FFF00BF1837BD46F2
:100EA80080BD80B582B000AF0346FB80B7F906303D
:100EB8001846FFF733FF00BF0837BD4680BD80B531
:100EC80082B000AF78607868FFF7A4FF0346184641
:100ED8000837BD4680BD000080B489B000AFB34B71
:100EE8001B6903F03803182B00F2558101A252F850
:100EF80023F000BF610F00089F1100089F11000830
:100F08009F1100089F1100089F1100089F110008F9
:100F18009F110008870F00089F1100089F11000803
:100F28009F1100089F1100089F1100089F110008D9
:100F38009F1100088D0F00089F1100089F110008DD
:100F48009F1100089F1100089F1100089F110008B9
:100F58009F110008930F0008944B1B6803F02003AF
:100F6800002B09D0914B1B68DB0803F00303904A60
:100F780022FA03F3BB6111E18D4BBB610EE18D4B8E
:100F8800BB610BE18C4BBB6108E1884B9B6A03F0AA
:100F980003037B61854B9B6A1B0903F03F033B619D
:100FA800824BDB6A03F00103FB60804B5B6BDB0861
:100FB800C3F30C03FA6802FB03F307EE903AF8EE6A
:100FC800677AC7ED027A3B69002B00F0E1807B6904
:100FD800022B00F083807B69022B00F2A1807B69E1
:100FE800002B03D07B69012B56D099E06F4B1B680F
:100FF80003F02003002B2DD06C4B1B68DB0803F09B
:1010080003036B4A22FA03F37B607B6807EE903A8E
:10101800F8EE676A3B6907EE903AF8EE677A86EE73
:10102800A77A624B1B6BC3F3080307EE903AF8EEFE
:10103800676A97ED026ADFED615AC6EE257A76EEA9
:10104800A77AF7EE006A77EEA67A67EE277AC7EDF9
:10105800077A87E03B6907EE903AF8EE677ADFEDAA
:10106800586A86EEA77A514B1B6BC3F3080307EE49
:10107800903AF8EE676A97ED026ADFED505AC6EECD
:10108800257A76EEA77AF7EE006A77EEA67A67EE0B
:10109800277AC7ED077A65E03B6907EE903AF8EEE4
:1010A800677ADFED486A86EEA77A404B1B6BC3F37D
:1010B800080307EE903AF8EE676A97ED026ADFEDEB
:1010C8003F5AC6EE257A76EEA77AF7EE006A77EEF3
:1010D800A67A67EE277AC7ED077A43E03B6907EE01
:1010E800903AF8EE677ADFED386A86EEA77A2F4BEA
:1010F8001B6BC3F3080307EE903AF8EE676A97EDA7
:10110800026ADFED2E5AC6EE257A76EEA77AF7EE5A
:10111800006A77EEA67A67EE277AC7ED077A21E0AC
:101128003B6907EE903AF8EE677ADFED266A86EEBD
:10113800A77A1E4B1B6BC3F3080307EE903AF8EE31
:10114800676A97ED026ADFED1D5AC6EE257A76EEDC
:10115800A77AF7EE006A77EEA67A67EE277AC7EDE8
:10116800077A00BF114B1B6B5B0A03F07F03013347
:101178003B603B6807EE903AB8EE677AD7ED076AAE
:10118800C6EE877AFCEEE77A17EE903ABB6105E087
:101198000023BB6102E0074BBB6100BFBB69184677
:1011A8002437BD465DF8047B704700BF00440258F1
:1011B8000090D00300093D0040787D010000004602
:1011C8000024744C0024744A20BCBE4B80B582B005
:1011D80000AFFFF781FE0246104B9B691B0A03F024
:1011E8000F030F49CB5C03F01F0322FA03F37B6064
:1011F8000A4B9B6903F00F03094AD35C03F01F03F2
:101208007A6822FA03F3074A1360074A7B68136077
:10121800044B1B6818460837BD4680BD0044025879
:10122800F0810008040000200000002080B500AF15
:10123800FFF7CCFF0246064BDB691B0903F00703E7
:101248000449CB5C03F01F0322FA03F3184680BD60
:1012580000440258F081000880B500AFFFF7B6FFE0
:101268000246064BDB691B0A03F007030449CB5C03
:1012780003F01F0322FA03F3184680BD0044025806
:10128800F08100082DE9B04FCAB000AFC7F81401CB
:10129800002387F82731002387F82631D7F814313F
:1012A800D3E9002302F00064002554EA050349D07D
:1012B800D7F814319B6EB3F5401F2FD0B3F5401FFC
:1012C80028D8B3F5001F1AD0B3F5001F22D8002B79
:1012D80003D0B3F5801F07D01CE0B84BDB6AB74AD0
:1012E80043F40033D3621AE0D7F8143108330221EB
:1012F800184601F08FFC034687F827310FE0D7F82E
:10130800143128330221184601F036FD034687F8C8
:10131800273104E0012387F8273100E000BF97F860
:101328002731002B0AD1A54B1B6D23F44011D7F8A8
:1013380014319B6EA14A0B43136503E097F82731DC
:1013480087F82631D7F81431D3E9002302F48078DE
:101358004FF0000958EA090347D0D7F814319B6DBC
:10136800042B2AD801A252F823F000BF89130008E1
:1013780097130008AD130008CB130008CB1300081F
:101388008E4BDB6A8D4A43F40033D3621AE0D7F8F8
:10139800143108330021184601F03CFC034687F855
:1013A80027310FE0D7F8143128330021184601F00F
:1013B800E3FC034687F8273104E0012387F8273147
:1013C80000E000BF97F82731002B0AD17B4B1B6D3B
:1013D80023F00701D7F814319B6D784A0B43136546
:1013E80003E097F8273187F82631D7F81431D3E985
:1013F800002302F4007A4FF0000B5AEA0B034CD09A
:10140800D7F81431DB6DB3F5807F30D0B3F5807F2A
:1014180029D8C02B2DD0C02B25D8802B18D0802BB5
:1014280021D8002B02D0402B07D01CE0634BDB6A8D
:10143800624A43F40033D3621CE0D7F8143108330E
:101448000021184601F0E6FB034687F8273111E032
:10145800D7F8143128330021184601F08DFC0346D3
:1014680087F8273106E0012387F8273102E000BF1B
:1014780000E000BF97F82731002B0AD14F4B1B6DB6
:1014880023F4E071D7F81431DB6D4C4A0B43136534
:1014980003E097F8273187F82631D7F81431D3E9D4
:1014A800002302F48063C7F808310023C7F80C3121
:1014B800D7E942120B46134353D0D7F81431D3F867
:1014C800A830B3F5000F35D0B3F5000F2ED8B3F51B
:1014D800C00F31D0B3F5C00F28D8B3F5800F1AD09C
:1014E800B3F5800F22D8002B03D0B3F5001F07D027
:1014F8001CE0324BDB6A314A43F40033D3621CE010
:10150800D7F8143108330021184601F083FB03464D
:1015180087F8273111E0D7F814312833002118460D
:1015280001F02AFC034687F8273106E0012387F8F3
:10153800273102E000BF00E000BF97F82731002BF9
:101548000BD11E4B9B6D23F46001D7F81431D3F8EF
:10155800A8301A4A0B43936503E097F8273187F8B8
:101568002631D7F81431D3E9002302F40063C7F811
:1015780000310023C7F80431D7E940120B46134362
:1015880056D0D7F81431D3F8AC30B3F1806F38D0D7
:10159800B3F1806F31D8B3F1407F34D0B3F1407FDD
:1015A8002BD8B3F1007F1DD0B3F1007F25D8002BD5
:1015B80006D0B3F1807F0AD01FE000BF0044025874
:1015C800A24BDB6AA14A43F40033D3621CE0D7F88C
:1015D800143108330021184601F01CFB034687F834
:1015E800273111E0D7F8143128330021184601F0CB
:1015F800C3FB034687F8273106E0012387F8273124
:1016080002E000BF00E000BF97F82731002B0BD1A4
:101618008E4B9B6D23F0E061D7F81431D3F8AC30D2
:101628008A4A0B43936503E097F8273187F82631F8
:10163800D7F81431D3E9002302F00073C7F8F83063
:101648000023C7F8FC30D7E93E120B4613433AD0C3
:10165800D7F81431DB6C302B1FD0302B19D8202B46
:101668000CD0202B15D8002B19D0102B11D1774B6B
:10167800DB6A764A43F40033D36211E0D7F81431B9
:1016880008330221184601F0C5FA034687F82731C6
:1016980006E0012387F8273102E000BF00E000BF21
:1016A80097F82731002B0AD1684BDB6C23F0300107
:1016B800D7F81431DB6C654A0B43D36403E097F821
:1016C800273187F82631D7F81431D3E9002302F4FB
:1016D8008053C7F8F0300023C7F8F430D7E93C123C
:1016E8000B46134351D0D7F814311B6EB3F5804F16
:1016F80035D0B3F5804F2ED8B3F5405F31D0B3F570
:10170800405F28D8B3F5005F1AD0B3F5005F22D840
:10171800002B03D0B3F5805F07D01CE04B4BDB6A8E
:101728004A4A43F40033D3621CE0D7F81431083333
:101738000021184601F06EFA034687F8273111E0B8
:10174800D7F8143128330021184601F015FB034659
:1017580087F8273106E0012387F8273102E000BF28
:1017680000E000BF97F82731002B0AD1374B1B6DDB
:1017780023F4E041D7F814311B6E344A0B43136548
:1017880003E097F8273187F82631D7F81431D3E9E1
:10179800002302F40053C7F8E8300023C7F8EC3000
:1017A800D7E93A120B46134356D0D7F814315B6E7B
:1017B800B3F5A02F33D0B3F5A02F2CD8B3F5802FD5
:1017C8002FD0B3F5802F26D8B3F5403F2BD0B3F5F3
:1017D800403F20D8B3F5003F12D0B3F5003F1AD8E8
:1017E800002B22D0B3F5803F15D1D7F81431083338
:1017F8000121184601F00EFA034687F8273115E053
:10180800D7F8143128330121184601F0B5FA0346F8
:1018180087F827310AE0012387F8273106E000BF5F
:1018280004E000BF02E000BF00E000BF97F82731E6
:10183800002B0DD1054B1B6D23F4E021D7F8143193
:101848005B6E024A0B43136506E000BF0044025872
:1018580097F8273187F82631D7F81431D3E90023D0
:1018680002F48043C7F8E0300023C7F8E430D7E932
:1018780038120B46134355D0D7F81431D3F8B0308B
:10188800B3F1A04F33D0B3F1A04F2CD8B3F1804FB0
:101898002FD0B3F1804F26D8B3F1405F2BD0B3F1EE
:1018A800405F20D8B3F1005F12D0B3F1005F1AD8BF
:1018B800002B22D0B3F1805F15D1D7F8143108334B
:1018C8000121184601F0A6F9034687F8273115E0EB
:1018D800D7F8143128330121184601F04DFA034690
:1018E80087F827310AE0012387F8273106E000BF8F
:1018F80004E000BF02E000BF00E000BF97F8273116
:10190800002B0BD1A34B9B6D23F0E041D7F814318A
:10191800D3F8B0309F4A0B43936503E097F827311B
:1019280087F82631D7F81431D3E9002302F40043AD
:10193800C7F8D8300023C7F8DC30D7E936120B4691
:10194800134337D0D7F814311B6FB3F1005F0ED0B3
:10195800B3F1005F16D8002B18D0B3F1805F11D116
:101968008C4BDB6A8B4A43F40033D3620FE0D7F821
:10197800143108330121184601F04CF9034687F861
:10198800273104E0012387F8273100E000BF97F8EA
:101998002731002B0AD17F4B1B6D23F04051D7F81C
:1019A80014311B6F7B4A0B43136503E097F827310B
:1019B80087F82631D7F81431D3E9002302F0807371
:1019C800C7F8D0300023C7F8D430D7E934120B4613
:1019D800134339D0D7F814319B6C032B1CD801A2C0
:1019E80052F823F0291A0008FD1900080B1A0008FC
:1019F800291A0008674BDB6A664A43F40033D3624E
:101A08000FE0D7F8143108330221184601F002F923
:101A1800034687F8273104E0012387F8273100E0DF
:101A280000BF97F82731002B0AD15A4BDB6C23F003
:101A38000301D7F814319B6C564A0B43D36403E077
:101A480097F8273187F82631D7F81431D3E90023DE
:101A580002F48003C7F8C8300023C7F8CC30D7E9B0
:101A680032120B46134300F09F804B4B1B684A4AC7
:101A780043F480731360FFF7EFF8C7F820010BE019
:101A8800FFF7EAF80246D7F82031D31A642B03D9B6
:101A9800032387F8273105E03F4B1B6803F4807365
:101AA800002BEDD097F82731002B79D1394B1A6FDD
:101AB800D7F81431D3F8B430534003F44073002BF3
:101AC80015D0344B1B6F23F44073C7F81C31314BCE
:101AD8001B6F304A43F4803313672E4B1B6F2D4A1C
:101AE80023F4803313672B4AD7F81C311367D7F8D0
:101AF8001431D3F8B430B3F5807F18D1FFF7ACF8C0
:101B0800C7F820010DE0FFF7A7F80246D7F8203103
:101B1800D21A41F288339A4203D9032387F827312E
:101B280005E01C4B1B6F03F00203002BEBD097F86A
:101B38002731002B29D1D7F81431D3F8B43003F466
:101B48004073B3F5407F0ED1124B1B6923F47C51CF
:101B5800D7F81431D3F8B4301A09104B13400D4A92
:101B68000B43136105E00B4B1B690A4A23F47C53B2
:101B78001361084B196FD7F81431D3F8B430C3F395
:101B88000B03044A0B4313670EE097F8273187F8D5
:101B9800263109E00044025800480258CFFFFF00F0
:101BA80097F8273187F82631D7F81431D3E900237D
:101BB80002F00103C7F8C0300023C7F8C430D7E9E2
:101BC80030120B46134300F08980D7F81431DB6FCD
:101BD800282B6BD801A252F823F000BFBD1C0008C7
:101BE800B51C0008B51C0008B51C0008B51C000889
:101BF800B51C0008B51C0008B51C0008891C0008A5
:101C0800B51C0008B51C0008B51C0008B51C000868
:101C1800B51C0008B51C0008B51C00089F1C00086E
:101C2800B51C0008B51C0008B51C0008B51C000848
:101C3800B51C0008B51C0008B51C0008BD1C000830
:101C4800B51C0008B51C0008B51C0008B51C000828
:101C5800B51C0008B51C0008B51C0008BD1C000810
:101C6800B51C0008B51C0008B51C0008B51C000808
:101C7800B51C0008B51C0008B51C0008BD1C0008F0
:101C8800D7F8143108330121184600F0C3FF034682
:101C980087F827310FE0D7F8143128330121184687
:101CA80001F06AF8034687F8273104E0012387F832
:101CB800273100E000BF97F82731002B0AD1BF4B2E
:101CC8005B6D23F03801D7F81431DB6FBB4A0B4347
:101CD800536503E097F8273187F82631D7F8143190
:101CE800D3E9002302F00203C7F8B8300023C7F88D
:101CF800BC30D7E92E120B46134341D0D7F8143124
:101D08009B6F052B24D801A252F823F0611D00080F
:101D18002D1D0008431D0008611D0008611D0008F5
:101D2800611D0008D7F8143108330121184600F066
:101D380071FF034687F827310FE0D7F814312833AD
:101D48000121184601F018F8034687F8273104E006
:101D5800012387F8273100E000BF97F82731002BCF
:101D68000AD1964B5B6D23F00701D7F814319B6FAE
:101D7800924A0B43536503E097F8273187F82631D9
:101D8800D7F81431D3E9002302F00403C7F8B030C0
:101D98000023C7F8B430D7E92C120B46134344D0BC
:101DA800D7F81431D3F89430052B25D801A252F86E
:101DB80023F000BF091E0008D51D0008EB1D000810
:101DC800091E0008091E0008091E0008D7F814316A
:101DD80008330121184600F01DFF034687F8273114
:101DE8000FE0D7F8143128330121184600F0C4FF5A
:101DF800034687F8273104E0012387F8273100E0FC
:101E080000BF97F82731002B0BD16C4B9B6D23F04B
:101E18000701D7F81431D3F89430684A0B43936517
:101E280003E097F8273187F82631D7F81431D3E93A
:101E3800002302F02003C7F8A8300023C7F8AC300D
:101E4800D7E92A120B46134355D0D7F81431D3F8E3
:101E58009030B3F1A04F33D0B3F1A04F2CD8B3F1E9
:101E6800804F2FD0B3F1804F26D8B3F1405F2BD0ED
:101E7800B3F1405F20D8B3F1005F12D0B3F1005F37
:101E88001AD8002B22D0B3F1805F15D1D7F81431BE
:101E980008330021184600F0BDFE034687F82731B5
:101EA80015E0D7F8143128330221184600F064FFF2
:101EB800034687F827310AE0012387F8273106E02F
:101EC80000BF04E000BF02E000BF00E000BF97F8D9
:101ED8002731002B0BD1394B5B6D23F0E041D7F84C
:101EE8001431D3F89030354A0B43536503E097F823
:101EF800273187F82631D7F81431D3E9002302F0C7
:101F08004003C7F8A0300023C7F8A430D7E9281247
:101F18000B46134358D0D7F81431D3F89C30B3F597
:101F2800A05F33D0B3F5A05F2CD8B3F5805F2FD076
:101F3800B3F5805F26D8B3F5406F2BD0B3F5406F6B
:101F480020D8B3F5006F12D0B3F5006F1AD8002B64
:101F580022D0B3F5806F15D1D7F81431083300219A
:101F6800184600F057FE034687F8273115E0D7F8E2
:101F7800143128330221184600F0FEFE034687F884
:101F880027310AE0012387F8273106E000BF04E083
:101F980000BF02E000BF00E000BF97F82731002B28
:101FA8000ED1064B9B6D23F4E051D7F81431D3F8CA
:101FB8009C30024A0B43936506E000BF0044025878
:101FC80097F8273187F82631D7F81431D3E9002359
:101FD80002F08003C7F898300023C7F89C30D7E98F
:101FE80026120B46134355D0D7F81431D3F8A03036
:101FF800B3F5204F33D0B3F5204F2CD8B3F5004FAD
:102008002FD0B3F5004F26D8B3F5C04F2BD0B3F57A
:10201800C04F20D8B3F5804F12D0B3F5804F1AD8EF
:10202800002B22D0B3F5005F15D1D7F8143108334F
:102038000021184600F0EEFD034687F8273115E029
:10204800D7F8143128330221184600F095FE0346CC
:1020580087F827310AE0012387F8273106E000BF17
:1020680004E000BF02E000BF00E000BF97F827319E
:10207800002B0BD1A14B9B6D23F46041D7F8143191
:10208800D3F8A0309D4A0B43936503E097F82731B6
:1020980087F82631D7F81431D3E9002302F0080372
:1020A800C7F890300023C7F89430D7E924120B46BC
:1020B80013431ED0D7F81431D3F88430B3F5805FBA
:1020C8000CD1D7F8143128330221184600F054FEF9
:1020D8000346002B02D0012387F82631874B5B6D1E
:1020E80023F44051D7F81431D3F88430834A0B4392
:1020F8005365D7F81431D3E9002302F01003C7F869
:1021080088300023C7F88C30D7E922120B461343D6
:102118001ED0D7F81431D3F89830B3F5807F0CD19E
:10212800D7F8143128330221184600F025FE03465B
:10213800002B02D0012387F82631704B9B6D23F4C6
:102148004071D7F81431D3F898306C4A0B43936533
:10215800D7F81431D3E9002302F40023C7F88030FC
:102168000023C7F88430D7E920120B4613433ED02A
:10217800D7F81431D3F8A430B3F5003F22D0B3F523
:10218800003F1BD8002B03D0B3F5803F0BD015E0E0
:10219800D7F8143108330021184600F03BFD0346F8
:1021A80087F827310FE0D7F8143128330221184671
:1021B80000F0E2FD034687F8273104E0012387F8A1
:1021C800273100E000BF97F82731002B0BD14B4B8C
:1021D8009B6D23F44031D7F81431D3F8A430474A23
:1021E8000B43936503E097F8273187F82631D7F832
:1021F8001431D3E9002302F48023BB670023FB6773
:10220800D7E91E120B4613433BD0D7F81431D3F845
:102218008830B3F5401F1FD0B3F5401F18D8B3F569
:10222800801F03D0B3F5001F07D011E0334BDB6AE2
:10223800324A43F40033D3620FE0D7F8143128331D
:102248000121184600F098FD034687F8273104E07D
:10225800012387F8273100E000BF97F82731002BCA
:102268000BD1264B5B6D23F44011D7F81431D3F80A
:102278008830224A0B43536503E097F8273187F8E3
:102288002631D7F81431D3E9002302F480333B67B1
:1022980000237B67D7E91C120B46134334D0D7F8C9
:1022A80014311B6D002B03D0B3F5803F07D011E02C
:1022B800124BDB6A114A43F40033D3620EE0D7F8BD
:1022C800143108330221184600F0A4FC034687F8AD
:1022D800273103E0012387F8273100BF97F827311A
:1022E800002B0DD1054BDB6C23F48031D7F814316A
:1022F8001B6D024A0B43D36406E000BF004402583A
:1023080097F8273187F82631D7F81431D3E9002315
:1023180002F00053BB660023FB66D7E91A120B468E
:1023280013430CD0D7F8143128330221184600F093
:1023380023FD0346002B02D0012387F82631D7F866
:102348001431D3E9002302F400333B6600237B6693
:10235800D7E918120B46134338D0D7F81431D3F8FD
:102368008030B3F5407F18D0B3F5407F11D8B3F56E
:10237800007F14D0B3F5007F0BD8002B11D0B3F534
:10238800807F06D1C34BDB6AC24A43F40033D36271
:1023980008E0012387F8273104E000BF02E000BF0E
:1023A80000E000BF97F82731002B0BD1B94B5B6DCC
:1023B80023F44071D7F81431D3F88030B54A0B4371
:1023C800536503E097F8273187F82631D7F8143199
:1023D800D3E9002302F48013BB650023FB65D7E92A
:1023E80016120B46134309D0AA4B1B6D23F000416C
:1023F800D7F814315B6FA74A0B431365D7F814312C
:10240800D3E9002302F080533B6500237B65D7E9BD
:1024180014120B4613430AD09E4B1B6923F48041C8
:10242800D7F81431D3F8B8309A4A0B431361D7F868
:102438001431D3E9002302F40013BB640023FB64C6
:10244800D7E912120B46134309D0924B1B6D23F0A8
:102458008071D7F81431DB6E8E4A0B431365D7F8B9
:102468001431D3E9002302F080433B6400237B64EA
:10247800D7E910120B4613430ED0864B1B69854AC9
:1024880023F400431361834B1969D7F81431D3F847
:10249800BC30804A0B431361D7F81431D3E90023C9
:1024A80002F00043BB630023FB63D7E90E120B461F
:1024B800134309D0774BDB6C23F04051D7F8143124
:1024C8005B6D744A0B43D364D7F81431D3E9002306
:1024D80002F400033B6300237B63D7E90C120B462D
:1024E80013430AD06B4B5B6D23F44001D7F81431CA
:1024F800D3F88C30674A0B435365D7F81431D3E9C6
:1025080000230021B96203F00103FB62D7E90A1234
:102518000B46134311D0D7F814310833002118465D
:1025280000F078FB034687F8273197F82731002B0E
:1025380003D097F8273187F82631D7F81431D3E933
:1025480000230021396203F002037B62D7E90812F5
:102558000B46134311D0D7F814310833012118461C
:1025680000F058FB034687F8273197F82731002BEE
:1025780003D097F8273187F82631D7F81431D3E9F3
:1025880000230021B96103F00403FB61D7E90612B7
:102598000B46134311D0D7F81431083302211846DB
:1025A80000F038FB034687F8273197F82731002BCE
:1025B80003D097F8273187F82631D7F81431D3E9B3
:1025C80000230021396103F008037B61D7E9041275
:1025D8000B46134311D0D7F814312833002118467D
:1025E80000F0CAFB034687F8273197F82731002BFC
:1025F80003D097F8273187F82631D7F81431D3E973
:1026080000230021B96003F01003FB60D7E9021230
:102618000B46134311D0D7F814312833012118463B
:1026280000F0AAFB034687F8273197F82731002BDB
:1026380003D097F8273187F82631D7F81431D3E932
:1026480000230021396003F020037B60D7E90012E2
:102658000B46134311D0D7F81431283302211846FA
:1026680000F08AFB034687F8273197F82731002BBB
:1026780003D097F8273187F8263197F82631002BB1
:1026880001D1002300E00123184607F59477BD46E1
:10269800BDE8B08F0044025880B500AFFEF796FD44
:1026A8000246064B1B6A1B0903F007030449CB5C6F
:1026B80003F01F0322FA03F3184680BD00440258B2
:1026C800F081000880B489B000AF7860A14B9B6AA4
:1026D80003F00303BB619F4B9B6A1B0B03F03F0393
:1026E8007B619C4BDB6A1B0903F001033B61994B3F
:1026F800DB6BDB08C3F30C033A6902FB03F307EE59
:10270800903AF8EE677AC7ED037A7B69002B00F000
:102718001181BB69022B00F08380BB69022B00F298
:10272800A180BB69002B03D0BB69012B56D099E06F
:10273800884B1B6803F02003002B2DD0854B1B68AA
:10274800DB0803F00303844A22FA03F3BB60BB6887
:1027580007EE903AF8EE676A7B6907EE903AF8EE72
:10276800677A86EEA77A7B4B9B6BC3F3080307EE69
:10277800903AF8EE676A97ED036ADFED785AC6EE8D
:10278800257A76EEA77AF7EE006A77EEA67A67EEF4
:10279800277AC7ED077A87E07B6907EE903AF8EE6B
:1027A800677ADFED6F6A86EEA77A6A4B9B6BC3F395
:1027B800080307EE903AF8EE676A97ED036ADFEDD3
:1027C800675AC6EE257A76EEA77AF7EE006A77EEB4
:1027D800A67A67EE277AC7ED077A65E07B6907EE88
:1027E800903AF8EE677ADFED5F6A86EEA77A594B82
:1027F8009B6BC3F3080307EE903AF8EE676A97ED10
:10280800036ADFED565AC6EE257A76EEA77AF7EE1A
:10281800006A77EEA67A67EE277AC7ED077A43E073
:102828007B6907EE903AF8EE677ADFED4F6A86EE3D
:10283800A77A484B9B6BC3F3080307EE903AF8EE70
:10284800676A97ED036ADFED455AC6EE257A76EE9C
:10285800A77AF7EE006A77EEA67A67EE277AC7EDD1
:10286800077A21E07B6907EE903AF8EE677ADFEDA8
:102878003D6A86EEA77A374B9B6BC3F3080307EED6
:10288800903AF8EE676A97ED036ADFED345AC6EEC0
:10289800257A76EEA77AF7EE006A77EEA67A67EEE3
:1028A800277AC7ED077A00BF2A4B9B6B5B0A03F0B8
:1028B8007F0307EE903AF8EE677AB7EE007A37EEC4
:1028C800877AD7ED076AC6EE877AFCEEE77A17EEC5
:1028D800902A7B681A601F4B9B6B1B0C03F07F03CD
:1028E80007EE903AF8EE677AB7EE007A37EE877A15
:1028F800D7ED076AC6EE877AFCEEE77A17EE902ADC
:102908007B685A60134B9B6B1B0E03F07F0307EE2B
:10291800903AF8EE677AB7EE007A37EE877AD7ED15
:10292800076AC6EE877AFCEEE77A17EE902A7B688C
:102938009A6008E07B6800221A607B6800225A606F
:102948007B6800229A6000BF2437BD465DF8047B8F
:10295800704700BF004402580090D00300000046B2
:102968000024744C0024744A20BCBE4B80B489B047
:1029780000AF7860A14B9B6A03F00303BB619F4BD8
:102988009B6A1B0D03F03F037B619C4BDB6A1B0AB0
:1029980003F001033B61994B5B6CDB08C3F30C0349
:1029A8003A6902FB03F307EE903AF8EE677AC7ED4F
:1029B800037A7B69002B00F01181BB69022B00F0C0
:1029C8008380BB69022B00F2A180BB69002B03D076
:1029D800BB69012B56D099E0884B1B6803F0200394
:1029E800002B2DD0854B1B68DB0803F00303844ABA
:1029F80022FA03F3BB60BB6807EE903AF8EE676A09
:102A08007B6907EE903AF8EE677A86EEA77A7B4BF9
:102A18001B6CC3F3080307EE903AF8EE676A97ED6C
:102A2800036ADFED785AC6EE257A76EEA77AF7EED6
:102A3800006A77EEA67A67EE277AC7ED077A87E00D
:102A48007B6907EE903AF8EE677ADFED6F6A86EEFB
:102A5800A77A6A4B1B6CC3F3080307EE903AF8EEAB
:102A6800676A97ED036ADFED675AC6EE257A76EE58
:102A7800A77AF7EE006A77EEA67A67EE277AC7EDAF
:102A8800077A65E07B6907EE903AF8EE677ADFED42
:102A98005F6A86EEA77A594B1B6CC3F3080307EEEF
:102AA800903AF8EE676A97ED036ADFED565AC6EE7C
:102AB800257A76EEA77AF7EE006A77EEA67A67EEC1
:102AC800277AC7ED077A43E07B6907EE903AF8EE7C
:102AD800677ADFED4F6A86EEA77A484B1B6CC3F323
:102AE800080307EE903AF8EE676A97ED036ADFEDA0
:102AF800455AC6EE257A76EEA77AF7EE006A77EEA3
:102B0800A67A67EE277AC7ED077A21E07B6907EE98
:102B1800903AF8EE677ADFED3D6A86EEA77A374B92
:102B28001B6CC3F3080307EE903AF8EE676A97ED5B
:102B3800036ADFED345AC6EE257A76EEA77AF7EE09
:102B4800006A77EEA67A67EE277AC7ED077A00BFA4
:102B58002A4B1B6C5B0A03F07F0307EE903AF8EEF2
:102B6800677AB7EE007A37EE877AD7ED076AC6EE4E
:102B7800877AFCEEE77A17EE902A7B681A601F4B7B
:102B88001B6C1B0C03F07F0307EE903AF8EE677A94
:102B9800B7EE007A37EE877AD7ED076AC6EE877AFE
:102BA800FCEEE77A17EE902A7B685A60134B1B6C91
:102BB8001B0E03F07F0307EE903AF8EE677AB7EE44
:102BC800007A37EE877AD7ED076AC6EE877AFCEE89
:102BD800E77A17EE902A7B689A6008E07B68002203
:102BE8001A607B6800225A607B6800229A6000BFE6
:102BF8002437BD465DF8047B704700BF0044025887
:102C08000090D003000000460024744C0024744A4D
:102C180020BCBE4B80B584B000AF7860396000231B
:102C2800FB73534B9B6A03F00303032B01D101236E
:102C380099E04F4B1B684E4A23F080631360FEF700
:102C48000BF8B86008E0FEF707F80246BB68D31A2D
:102C5800022B01D9032386E0454B1B6803F0006370
:102C6800002BF0D1424B9B6A23F47C327B681B68B3
:102C78001B033F4913438B627B685B68013BC3F3CB
:102C880008027B689B68013B5B029BB21A437B6826
:102C9800DB68013B1B0403F4FE031A437B681B69D2
:102CA800013B1B0603F0FE43314913438B63304B52
:102CB800DB6A23F0C0027B685B692D491343CB6252
:102CC8002B4BDB6A23F020027B689B69284913435E
:102CD800CB62274BDB6A264A23F01003D362244BCE
:102CE800DA6B244B13407A68D269D2002049134327
:102CF800CB631F4BDB6A1E4A43F01003D3623B6869
:102D0800002B06D11A4BDB6A194A43F40023D3621D
:102D18000FE03B68012B06D1154BDB6A144A43F4DC
:102D28008013D36205E0124BDB6A114A43F40013A7
:102D3800D3620F4B1B680E4A43F080631360FDF7A4
:102D48008BFFB86008E0FDF787FF0246BB68D31A1F
:102D5800022B01D9032306E0054B1B6803F000632F
:102D6800002BF0D0FB7B18461037BD4680BD00BF56
:102D7800004402580700FFFF80B584B000AF7860B8
:102D880039600023FB73534B9B6A03F00303032B47
:102D980001D1012399E04F4B1B684E4A23F0805321
:102DA8001360FDF759FFB86008E0FDF755FF0246CC
:102DB800BB68D31A022B01D9032386E0454B1B6855
:102DC80003F00053002BF0D1424B9B6A23F07C7236
:102DD8007B681B681B053F4913438B627B685B68F4
:102DE800013BC3F308027B689B68013B5B029BB213
:102DF8001A437B68DB68013B1B0403F4FE031A4398
:102E08007B681B69013B1B0603F0FE4331491343F2
:102E18000B64304BDB6A23F440627B685B692D49A5
:102E28001343CB622B4BDB6A23F400727B689B69EC
:102E380028491343CB62274BDB6A264A23F4807365
:102E4800D362244B5A6C244B13407A68D269D2005F
:102E5800204913434B641F4BDB6A1E4A43F48073BB
:102E6800D3623B68002B06D11A4BDB6A194A43F43C
:102E78008003D3620FE03B68012B06D1154BDB6A58
:102E8800144A43F40003D36205E0124BDB6A114A8B
:102E980043F08073D3620F4B1B680E4A43F0805394
:102EA8001360FDF7D9FEB86008E0FDF7D5FE0246CD
:102EB800BB68D31A022B01D9032306E0054B1B6814
:102EC80003F00053002BF0D0FB7B18461037BD46AB
:102ED80080BD00BF004402580700FFFF80B489B0DE
:102EE80000AF786039600023FB61894B7B6194E116
:102EF8003B681A680121FB6901FA03F313403B613F
:102F08003B69002B00F086813B685B6803F0030394
:102F1800012B05D03B685B6803F00303022B30D11B
:102F28007B689B68BB61FB695B00032202FA03F3C1
:102F3800DB43BA691340BB613B68DA68FB695B0035
:102F480002FA03F3BA691343BB617B68BA699A60F2
:102F58007B685B68BB610122FB6902FA03F3DB4310
:102F6800BA691340BB613B685B681B0903F0010247
:102F7800FB6902FA03F3BA691343BB617B68BA6958
:102F88005A603B685B6803F00303032B17D07B6828
:102F9800DB68BB61FB695B00032202FA03F3DB43D6
:102FA800BA691340BB613B689A68FB695B0002FA27
:102FB80003F3BA691343BB617B68BA69DA603B689B
:102FC8005B6803F00303022B23D1FB69DA087B68F3
:102FD800083253F82230BB61FB6903F007039B00FA
:102FE8000F2202FA03F3DB43BA691340BB613B6863
:102FF8001A69FB6903F007039B0002FA03F3BA6935
:103008001343BB61FB69DA087B680832B96943F886
:1030180022107B681B68BB61FB695B00032202FA14
:1030280003F3DB43BA691340BB613B685B6803F099
:103038000302FB695B0002FA03F3BA691343BB613D
:103048007B68BA691A603B685B6803F44033002BFD
:1030580000F0E0802F4BD3F8F4302E4A43F00203FF
:10306800C2F8F4302B4BD3F8F43003F00203FB60C2
:10307800FB68294AFB699B08023352F82330BB617D
:10308800FB6903F003039B000F2202FA03F3DB43FF
:10309800BA691340BB617B68204A934252D07B686F
:1030A8001F4A934231D07B681E4A93422BD07B68DB
:1030B8001D4A934225D07B681C4A93421FD07B68E7
:1030C8001B4A934219D07B681A4A934213D07B68F3
:1030D800194A93420DD07B68184A934207D07B68FF
:1030E800174A934201D109232DE00A232BE0082334
:1030F80029E0072327E0062325E0052323E004230E
:1031080021E003231FE002231DE001231BE000BF91
:10311800800000580044025800040058000002587B
:103128000004025800080258000C02580010025807
:103138000014025800180258001C025800200258B7
:10314800002402580023FA6902F003029200934017
:10315800BA691343BB613849FB699B080233BA69F2
:1031680041F823204FF0B0431B68BB613B69DB4348
:10317800BA691340BB613B685B6803F48013002B9A
:1031880003D0BA693B691343BB614FF0B042BB69D6
:1031980013604FF0B0435B68BB613B69DB43BA69BE
:1031A8001340BB613B685B6803F40013002B03D03A
:1031B800BA693B691343BB614FF0B042BB695360C6
:1031C8007B695B68BB613B69DB43BA691340BB61E0
:1031D8003B685B6803F40033002B03D0BA693B6992
:1031E8001343BB617B69BA695A607B691B68BB6121
:1031F8003B69DB43BA691340BB613B685B6803F416
:103208008033002B03D0BA693B691343BB617B69E8
:10321800BA691A60FB690133FB613B681A68FB698C
:1032280022FA03F3002B7FF463AE00BF00BF2437FC
:10323800BD465DF8047B70470004005880B483B035
:1032480000AF78600B467B8013467B707B78002B41
:1032580003D07A887B689A6103E07B881A047B68CC
:103268009A6100BF0C37BD465DF8047B704780B497
:1032780085B000AF78600B467B807B685B69FB603C
:103288007A88FB6813401A04FB68D9437B880B4093
:103298001A437B689A6100BF1437BD465DF8047B0A
:1032A8007047000080B598B000AF7860844A07F195
:1032B8000C0311464C22184604F062FF7B68002B71
:1032C80001D10123C6E17B681B687E4A934206D17F
:1032D8007B681B6803F580731A467B685A607B68B5
:1032E80093F89830DBB2002B06D17B68002283F874
:1032F80099207868FDF7D8F97B681B689A697B681C
:103308001B6822F010029A61FDF7A6FCF86514E02C
:10331800FDF7A2FC0246FB6DD31A0A2B0DD97B6878
:10332800D3F89C3043F001027B68C3F89C207B688B
:10333800032283F8982001238CE17B681B689B6932
:1033480003F00803082BE3D07B681B689A697B6845
:103358001B6842F001029A61FDF77EFCF86514E0F3
:10336800FDF77AFC0246FB6DD31A0A2B0DD97B6850
:10337800D3F89C3043F001027B68C3F89C207B683B
:10338800032283F89820012364E17B681B689B690A
:1033980003F00103002BE3D07B681B689A697B6804
:1033A8001B6842F002029A617B681B7C012B08D1E2
:1033B8007B681B689A697B681B6822F040029A61E7
:1033C80007E07B681B689A697B681B6842F04002CB
:1033D8009A617B685B7C012B08D17B681B689A69C2
:1033E8007B681B6842F480429A6107E07B681B682F
:1033F8009A697B681B6822F480429A617B689B7C8F
:10340800012B08D17B681B689A697B681B6822F4CA
:1034180080529A6107E07B681B689A697B681B6821
:1034280042F480529A617B681B689B6923F440715F
:103438007B689A687B681B680A439A617B681B688B
:103448009A697B681B6822F0A4029A617B681B68F2
:103458001A697B681B6822F010021A617B68DB68B6
:10346800012B08D17B681B689A697B681B6842F04E
:1034780004029A6130E07B68DB68002B2CD07B6803
:10348800DB68022B20D07B681B689A697B681B6805
:1034980042F080029A617B681B681A697B681B6826
:1034A80042F010021A617B68DB68032B14D17B6839
:1034B8001B689A697B681B6842F020029A610BE0DE
:1034C800A481000800A000407B681B689A697B689B
:1034D8001B6842F020029A617B689B69013B5A068F
:1034E8007B68DB69013B1B021A437B681B6A013B53
:1034F80042EA03017B685B69013B1A047B681B682D
:103508000A43DA617B689B68B3F5407F15D17B6815
:103518009B6A5A1E7B68DB6A013B1B021A437B6865
:103528001B6B013B1B0142EA03017B685B6A013BA1
:103538001A047B681B680A43DA607B681B6E002BE1
:103548000AD07B681B68D3F8C0107B685A6E7B680A
:103558001B680A43C3F8C0207B68DA6D7B681B6E62
:103568001344002B11D07B681B68D3F8C83023F0B4
:1035780007017B689B6E9B0060333B4453F8542CD7
:103588007B681B680A43C3F8C8207B681B6C002B48
:1035980011D07B681B68D3F8BC3023F007017B6827
:1035A8005B6C9B0060333B4453F8542C7B681B686E
:1035B8000A43C3F8BC207B689B6C002B12D07B6845
:1035C8001B68D3F8BC3023F070017B68DB6C9B0070
:1035D80060333B4453F8543C1A017B681B680A4328
:1035E800C3F8BC207B681B6D002B12D07B681B685E
:1035F800D3F8BC3023F4E0617B685B6D9B006033DB
:103608003B4453F8543C1A027B681B680A43C3F8CE
:10361800BC207B681B68114A934207D17B685B68B2
:103628009A687B685B6822F003029A607B680022D4
:10363800C3F894207B680022C3F89C207B68012291
:1036480083F89820786800F00DFB034687F85B3014
:1036580097F85B3018466037BD4680BD00A0004033
:1036680080B596B000AF7860954B1B699B077B656A
:10367800934B5B699B077A6D13407B657B681B687E
:103688001B6D03F470433B657B681B685B6D3A6D8B
:1036980013403B657B681B681B6D03F00F03FB64DD
:1036A8007B681B685B6DFA6C1340FB647B681B6866
:1036B8001B6D03F0F003BB647B681B685B6DBA6C21
:1036C8001340BB647B681B681B6D03F071537B64FC
:1036D8007B681B685B6D7A6C13407B647B681B6836
:1036E8001B6D03F060733B647B681B685B6D3A6C11
:1036F80013403B647B681B685B6DFB637B681B68DE
:103708001B6DBB63FB6B03F48073002B0FD0BB6B8B
:1037180003F48073002B0AD07B681B684FF4807217
:103728001A65674B00221A61786800F04FFAFB6B44
:1037380003F48063002B1CD0BB6B03F48063002B65
:1037480017D07B681B68D3F8DC307B637B681B6809
:10375800D3F8E4307A6B13407B637B681B684FF4C3
:1037680080621A65564B00221A61796B786800F0FE
:1037780004FA7B6D002B0DD07B681A68796D514B6C
:103788000B4013654E4A7B6D9B0F1361796D78680A
:1037980000F0B2F93B6D002B0DD07B681A68396DCB
:1037A800484B0B401365464A3B6D9B0F1361396DBF
:1037B800786800F0ACF9FB6C002B0DD07B681A68B8
:1037C800F96C404B0B4013653D4AFB6C9B0F136132
:1037D800F96C786800F0A6F9BB6C002B0DD07B68FB
:1037E8001A68B96C374B0B401365354ABB6C9B0F95
:1037F8001361B96C786800F0A0F9FB6B03F40063FF
:10380800002B0FD0BB6B03F40063002B0AD07B683E
:103818001B684FF400621A65294B00221A61786808
:1038280000F096F9FB6B03F40073002B1CD0BB6B04
:1038380003F40073002B17D07B681B68D3F8D830CB
:103848003B637B681B68D3F8E0303A6B13403B63FB
:103858007B681B684FF400721A65194B00221A61C5
:10386800396B786800F07EF9FB6B03F40023002BBA
:103878000FD0BB6B03F40023002B0AD07B681B68B6
:103888004FF400221A650E4B00221A61786800F086
:103898007FF9FB6B03F48033002B15D0BB6B03F46B
:1038A8008033002B10D07B681B684FF480321A6578
:1038B800034B00221A61786800F074F904E000BF35
:1038C80000A80040FFFFCF3FFB6B03F48023002BD1
:1038D8000FD0BB6B03F48023002B0AD07B681B68D6
:1038E8004FF480221A65814B00221A61786800F033
:1038F80063F9FB6B03F40033002B14D0BB6B03F4A8
:103908000033002B0FD07B681B684FF400321A6518
:10391800764B00221A617B68D3F89C3043F0800212
:103928007B68C3F89C203B6C002B0DD07B681A6821
:10393800396C6F4B0B4013656C4A3B6C9B0F1361E2
:10394800396C786800F056F97B6C002B11D07B68D5
:103958001A68796C664B0B401365644A7B6C9B0F45
:1039680013617B68D3F89C207B6C1A437B68C3F88F
:103978009C207B681B685F4A934240F0AA807B6862
:103988005B689B6803F00303002B00F0A2807B6850
:103998005B681B6A03F00F03FB627B685B685B6A0A
:1039A800FA6A1340FB627B685B681B6A03F03003AA
:1039B800BB627B685B685B6ABA6A1340BB627B6800
:1039C8005B681B6A03F4C0737B627B685B685B6A35
:1039D8007A6A13407B627B685B681B6A03F4FC436A
:1039E8003B627B685B685B6A3A6A13403B627B6850
:1039F8005B681B6A03F4F023FB617B685B685B6AA6
:103A0800FA691340FB617B685B685B6ABB617B6832
:103A18005B681B6A7B61FB6A002B07D07B685B686D
:103A2800FA6A1A62F96A786800F0EFF8BB6A002B44
:103A380007D07B685B68BA6A1A62B96A786800F06E
:103A4800EFF8BB6903F04003002B19D07B6903F042
:103A58004003002B14D07B685B68DB6B1B0C9BB2AC
:103A68003B617B685B68DB6B03F03F03FB607B6853
:103A78005B6840221A62FA683969786800F0DBF8F6
:103A88007B6A002B07D07B685B687A6A1A62796A5E
:103A9800786800F0DCF83B6A002B0BD07B685B6829
:103AA8003A6A1A627B68D3F89C203B6A1A437B689F
:103AB800C3F89C20FB69002B0BD07B685B68FA6914
:103AC8001A627B68D3F89C20FB691A437B68C3F8A9
:103AD8009C207B68D3F89C30002B02D0786800F0DB
:103AE8007FF800BF5837BD4680BD00BF00A8004022
:103AF800FFFFCF3F00A0004080B483B000AF7860E4
:103B0800396000BF0C37BD465DF8047B704780B450
:103B180083B000AF7860396000BF0C37BD465DF8F0
:103B2800047B704780B483B000AF7860396000BF11
:103B38000C37BD465DF8047B704780B483B000AF96
:103B48007860396000BF0C37BD465DF8047B70476C
:103B580080B483B000AF786000BF0C37BD465DF815
:103B6800047B704780B483B000AF7860396000BFD1
:103B78000C37BD465DF8047B704780B483B000AF56
:103B88007860396000BF0C37BD465DF8047B70472C
:103B980080B483B000AF786000BF0C37BD465DF8D5
:103BA800047B704780B483B000AF786000BF0C37E7
:103BB800BD465DF8047B704780B483B000AF786081
:103BC80000BF0C37BD465DF8047B704780B483B0F6
:103BD80000AF786000BF0C37BD465DF8047B7047C6
:103BE80080B483B000AF786000BF0C37BD465DF885
:103BF800047B704780B483B000AF7860396000BF41
:103C08000C37BD465DF8047B704780B483B000AFC5
:103C18007860396000BF0C37BD465DF8047B70479B
:103C280080B483B000AF7860396000BF0C37BD4600
:103C38005DF8047B704780B485B000AFF860B96068
:103C48007A6000BF1437BD465DF8047B704780B4C6
:103C580083B000AF7860396000BF0C37BD465DF8AF
:103C6800047B704780B485B000AF78607B685B6B7D
:103C7800BB607B681B68D3F88420A74B1340BA68E5
:103C880091007A6812680B43C2F884307B681B681D
:103C9800D3F8843023F47F017B689B6B1A047B681C
:103CA8001B680A43C3F884207B689B6BBA6813447B
:103CB800BB607B681B68D3F88820974B1340BA68B1
:103CC80091007A6812680B43C2F888307B681B68D9
:103CD800D3F8883023F4FE017B68DB6B1A047B6819
:103CE8001B680A43C3F888207B68DB6B5B00BA68F3
:103CF8001344BB607B681B68D3F8A020864B134035
:103D0800BA6891007A6812680B43C2F8A0307B68E1
:103D18001B68D3F8A03023F4FE017B681B6C1A04DF
:103D28007B681B680A43C3F8A0207B681B6C7A6811
:103D3800526C02FB03F3BA681344BB607B681B68D0
:103D4800D3F8B020744B1340BA6891007A681268AF
:103D58000B43C2F8B0307B681B68D3F8B03023F44B
:103D6800FE017B689B6C1A047B681B680A43C3F8D6
:103D7800B0207B689B6C7A68D26C02FB03F3BA684C
:103D88001344BB607B681B68D3F8AC20624B1340BC
:103D9800BA6891007A6812680B43C2F8AC307B6845
:103DA8001B6D7A68526D02FB03F3BA681344BB605B
:103DB8007B681B68D3F8F020574B1340BA68910012
:103DC8007A6812680B43C2F8F0307B681B68D3F836
:103DD800F03023F47C117B689B6D1A047B681B68A8
:103DE8000A43C3F8F0207B689B6D5B00BA681344F4
:103DF800BB607B681B68D3F8C020474B1340BA6888
:103E080091007A6812680B43C2F8C0307B681B685F
:103E1800D3F8C03023F47C117B68DB6D1A047B680F
:103E28001B680A43C3F8C0207B681B68D3F8C030FE
:103E380023F07C517B681B6E1A067B681B680A435B
:103E4800C3F8C0207B685A6B344B13449A007B68D4
:103E5800DA667B68DA6E7B689B6B9B001A447B682A
:103E68001A677B681A6F7B68DB6BDB001A447B6818
:103E78005A677B685A6F7B681B6C7968496C01FBD1
:103E880003F39B001A447B689A677B689A6F7B6888
:103E98009B6C7968C96C01FB03F39B001A447B682F
:103EA800DA677B68DA6F7B681B6D7968496D01FB9F
:103EB80003F39B001A447B68C3F880207B68D3F81F
:103EC80080207B689B6DDB001A447B68C3F88420E4
:103ED8007B68D3F884207B68DB6D7968896E01FB89
:103EE80003F39B001A447B68C3F888207B68D3F8E7
:103EF80088207B681B6E7968896E01FB03F39B0041
:103F08001A447B68C3F890207B68D3F89030044A41
:103F1800934215D906E000BF0300FFFF002B0010F5
:103F2800FCD300407B68D3F89C3043F020027B68C8
:103F3800C3F89C207B68032283F89820012310E0B3
:103F48007B68DB6EFB6005E0FB6800221A60FB689B
:103F58000433FB607B68D3F89030FA689A42F3D355
:103F6800002318461437BD465DF8047B704700BF30
:103F780080B582B000AF78607B68002B01D1012347
:103F880042E07B68D3F88830002B06D17B6800229A
:103F980083F884207868FCF77DFC7B682422C3F8CA
:103FA80088207B681B681A687B681B6822F00102FE
:103FB8001A607B689B6A002B02D0786801F086F94A
:103FC800786800F01BFC0346012B01D101231BE09C
:103FD8007B681B685A687B681B6822F490425A60A9
:103FE8007B681B689A687B681B6822F02A029A60C3
:103FF8007B681B681A687B681B6842F001021A60BC
:10400800786801F005FA034618460837BD4680BDB2
:1040180080B5BAB000AF78607B681B68DB69C7F809
:10402800E4307B681B681B68C7F8E0307B681B6856
:104038009B68C7F8DC30D7F8E42040F60F0313403C
:10404800C7F8D830D7F8D830002B1BD1D7F8E430D0
:1040580003F02003002B15D0D7F8E03003F020033D
:10406800002B05D1D7F8DC3003F08053002B09D0A2
:104078007B685B6F002B00F093837B685B6F7868CD
:1040880098478DE3D7F8D830002B00F02381D7F874
:10409800DC208D4B1340002B06D1D7F8E0208B4B4A
:1040A8001340002B00F01681D7F8E43003F0010329
:1040B800002B11D0D7F8E03003F48073002B0BD01D
:1040C8007B681B6801221A627B68D3F8903043F042
:1040D80001027B68C3F89020D7F8E43003F00203AC
:1040E800002B11D0D7F8DC3003F00103002B0BD0E4
:1040F8007B681B6802221A627B68D3F8903043F011
:1041080004027B68C3F89020D7F8E43003F0040376
:10411800002B11D0D7F8DC3003F00103002B0BD0B3
:104128007B681B6804221A627B68D3F8903043F0DE
:1041380002027B68C3F89020D7F8E43003F0080344
:10414800002B17D0D7F8E03003F02003002B05D15F
:10415800D7F8DC205C4B1340002B0BD07B681B6826
:1041680008221A627B68D3F8903043F008027B6813
:10417800C3F89020D7F8E43003F40063002B12D082
:10418800D7F8E03003F08063002B0CD07B681B6805
:104198004FF400621A627B68D3F8903043F0200233
:1041A8007B68C3F890207B68D3F89030002B00F030
:1041B800F982D7F8E43003F02003002B13D0D7F8A6
:1041C800E03003F02003002B05D1D7F8DC3003F0F2
:1041D8008053002B07D07B685B6F002B03D07B6874
:1041E8005B6F786898477B68D3F89030C7F8D4300D
:1041F8007B681B689B6803F04003402B05D0D7F809
:10420800D43003F02803002B54D0786801F018FA52
:104218007B681B689B6803F04003402B46D17B6892
:104228001B680833C7F89C30D7F89C3053E8003F28
:10423800C7F89830D7F8983023F04003C7F8D03043
:104248007B681B680833D7F8D020C7F8A820C7F8C0
:10425800A430D7F8A410D7F8A82041E80023C7F85D
:10426800A030D7F8A030002BD9D17B68D3F88030A4
:10427800002B17D07B68D3F88030154A1A657B6805
:10428800D3F88030184602F019FA0346002B19D0EB
:104298007B68D3F880301B6D7A68D2F8802010468E
:1042A80098470FE0786800F093FA0BE0786800F020
:1042B8008FFA07E0786800F08BFA7B680022C3F871
:1042C80090206FE200BF6DE20100001020010004A1
:1042D800155700087B68DB6E012B40F00382D7F886
:1042E800E43003F01003002B00F0FC81D7F8E03035
:1042F80003F01003002B00F0F5817B681B68102287
:104308001A627B681B689B6803F04003402B40F0EF
:104318006D817B68D3F880301B68A44A934268D0CB
:104328007B68D3F880301B68A14A934261D07B68D0
:10433800D3F880301B689F4A93425AD07B68D3F8E1
:1043480080301B689C4A934253D07B68D3F88030F6
:104358001B689A4A93424CD07B68D3F880301B681C
:10436800974A934245D07B68D3F880301B68954ABA
:1043780093423ED07B68D3F880301B68924A9342C0
:1043880037D07B68D3F880301B68904A934230D08E
:104398007B68D3F880301B688D4A934229D07B68AC
:1043A800D3F880301B688B4A934222D07B68D3F8BD
:1043B80080301B68884A93421BD07B68D3F88030D2
:1043C8001B68864A934214D07B68D3F880301B68F8
:1043D800834A93420DD07B68D3F880301B68814AAA
:1043E800934206D07B68D3F880301B687E4A93429C
:1043F80006D17B68D3F880301B685B689BB205E008
:104408007B68D3F880301B685B689BB2A7F8BE3026
:10441800B7F8BE30002B00F0AD807B68B3F85C3095
:10442800B7F8BE209A4280F0A5807B68B7F8BE2016
:10443800A3F85E207B68D3F88030DB69B3F5807F12
:1044480000F087807B681B68C7F88830D7F8883009
:1044580053E8003FC7F88430D7F8843023F48073DA
:10446800C7F8B8307B681B681A46D7F8B830C7F861
:104478009430C7F89020D7F89010D7F8942041E8E6
:104488000023C7F88C30D7F88C30002BDAD17B6842
:104498001B6808337B677B6F53E8003F3B673B6FC4
:1044A80023F00103C7F8B4307B681B680833D7F8DA
:1044B800B420C7F88020FB67F96FD7F8802041E85F
:1044C8000023BB67BB6F002BE1D17B681B680833F7
:1044D8003B663B6E53E8003FFB65FB6D23F04003F2
:1044E800C7F8B0307B681B680833D7F8B020FA6685
:1044F800BB66B96EFA6E41E800237B667B6E002BC3
:10450800E3D17B682022C3F88C207B680022DA661E
:104518007B681B68FB64FB6C53E8003FBB64BB6CA7
:1045280023F01003C7F8AC307B681B681A46D7F82D
:10453800AC30BB657A65796DBA6D41E800233B659F
:104548003B6D002BE4D17B68D3F88030184601F02E
:1045580097FD7B6802221A677B68B3F85C207B684A
:10456800B3F85E309BB2D31A9BB21946786800F054
:1045780039F919E17B68B3F85C30B7F8BE209A4284
:1045880040F012817B68D3F88030DB69B3F5807F17
:1045980040F00A817B6802221A677B68B3F85C30B6
:1045A8001946786800F01EF9FEE000BF10000240CE
:1045B80028000240400002405800024070000240BB
:1045C80088000240A0000240B800024010040240E7
:1045D800280402404004024058040240700402408B
:1045E80088040240A0040240B80402407B68B3F883
:1045F8005C207B68B3F85E309BB2D31AA7F8CE3044
:104608007B68B3F85E309BB2002B00F0CF80B7F820
:10461800CE30002B00F0CA807B681B68BB63BB6B85
:1046280053E8003F7B637B6B23F49073C7F8C83073
:104638007B681B681A46D7F8C8307B643A64396CC3
:104648007A6C41E80023FB63FB6B002BE4D17B68A9
:104658001B6808337B627B6A53E8003F3B623A6A17
:10466800554B1340C7F8C4307B681B680833D7F82C
:10467800C4203A63FB62F96A3A6B41E80023BB62E3
:10468800BB6A002BE3D17B682022C3F88C207B68AF
:104698000022DA667B6800225A677B681B683B61E8
:1046A8003B6953E8003FFB60FB6823F01003C7F841
:1046B800C0307B681B681A46D7F8C030FB61BA6106
:1046C800B969FA6941E800237B617B69002BE4D171
:1046D8007B6802221A67B7F8CE301946786800F06E
:1046E80081F863E0D7F8E43003F48013002B0ED090
:1046F800D7F8DC3003F48003002B08D07B681B68F4
:104708004FF480121A62786801F03DF851E0D7F84A
:10471800E43003F08003002B14D0D7F8E03003F026
:104728008003002B05D1D7F8DC3003F40003002BFD
:1047380008D07B689B6F002B3AD07B689B6F7868AA
:10474800984735E0D7F8E43003F04003002B09D050
:10475800D7F8E03003F04003002B03D0786800F06E
:10476800E7FF26E0D7F8E43003F40003002B09D074
:10477800D7F8E03003F08043002B03D0786801F0CD
:1047880016F816E0D7F8E43003F08073002B10D049
:10479800D7F8E030002B0CDA786800F0FEFF08E06C
:1047A80000BF06E000BF04E000BF02E000BF00E079
:1047B80000BFE837BD4680BDFEFFFFEF80B483B081
:1047C80000AF786000BF0C37BD465DF8047B7047CA
:1047D80080B483B000AF786000BF0C37BD465DF889
:1047E800047B704780B483B000AF78600B467B8051
:1047F80000BF0C37BD465DF8047B70472DE9B04F0C
:1048080092B000AF7861002387F842307B699A68DC
:104818007B691B691A437B695B691A437B69DB699E
:1048280013437B647B691B681A68BE4B13407A6923
:104838001268796C0B4313607B691B685B6823F40F
:1048480040517B69DA687B691B680A435A607B6957
:104858009B697B647B691B68B34A934204D07B697C
:104868001B6A7A6C13437B647B691B689A68AF4B3D
:1048780013407A691268796C0B4393607B691B68F3
:10488800DB6A23F00F017B695A6A7B691B680A435C
:10489800DA627B691B68A64A934277D1A54B5B6DA8
:1048A80003F03803282B6DD801A252F823F000BF7B
:1048B8005D4900088D4900088D4900088D490008A8
:1048C8008D4900088D4900088D4900088D49000868
:1048D800654900088D4900088D4900088D49000880
:1048E8008D4900088D4900088D4900088D49000848
:1048F8006D4900088D4900088D4900088D49000858
:104908008D4900088D4900088D4900088D49000827
:10491800754900088D4900088D4900088D4900082F
:104928008D4900088D4900088D4900088D49000807
:104938007D4900088D4900088D4900088D49000807
:104948008D4900088D4900088D4900088D490008E7
:1049580085490008012387F8433022E2042387F8B9
:1049680043301EE2082387F843301AE2102387F801
:10497800433016E2202387F8433012E2402387F8B9
:1049880043300EE2802387F843300AE27B691B68D4
:10499800694A934230D1674B5B6D03F00703052BDF
:1049A80026D801A252F823F0C9490008D1490008C5
:1049B800D9490008E1490008E9490008F149000817
:1049C800002387F84330ECE1042387F84330E8E11B
:1049D800082387F84330E4E1102387F84330E0E107
:1049E800202387F84330DCE1402387F84330D8E1BF
:1049F800802387F84330D4E17B691B684F4A934290
:104A080030D14C4B5B6D03F00703052B26D801A270
:104A180052F823F0354A00083D4A0008454A000884
:104A28004D4A0008554A00085D4A0008002387F8E7
:104A38004330B6E1042387F84330B2E1082387F80E
:104A48004330AEE1102387F84330AAE1202387F8EA
:104A58004330A6E1402387F84330A2E1802387F85A
:104A680043309EE17B691B68354A934230D1314B14
:104A78005B6D03F00703052B26D801A252F823F03B
:104A8800A14A0008A94A0008B14A0008B94A000822
:104A9800C14A0008C94A0008002387F8433080E16A
:104AA800042387F843307CE1082387F8433078E112
:104AB800102387F8433074E1202387F8433070E1EE
:104AC800402387F843306CE1802387F8433068E15E
:104AD8007B691B681B4A934242D1164B5B6D03F0FE
:104AE8000703052B38D801A252F823F00D4B000814
:104AF800154B00081D4B0008254B0008514B0008BA
:104B0800594B0008002387F843304AE1042387F80B
:104B1800433046E1082387F8433042E1102387F801
:104B280043303EE1F369FFCF000C0058FFF4FF115A
:104B38000010014000440258004400400048004072
:104B4800004C004000500040202387F8433028E103
:104B5800402387F8433024E1802387F8433020E15D
:104B68007B691B68CB4A934276D1CB4B5B6D03F0D4
:104B78003803282B6CD801A252F823F0294C0008DE
:104B8800594C0008594C0008594C0008594C000869
:104B9800594C0008594C0008594C0008314C000881
:104BA800594C0008594C0008594C0008594C000849
:104BB800594C0008594C0008594C0008394C000859
:104BC800594C0008594C0008594C0008594C000829
:104BD800594C0008594C0008594C0008414C000831
:104BE800594C0008594C0008594C0008594C000809
:104BF800594C0008594C0008594C0008494C000809
:104C0800594C0008594C0008594C0008594C0008E8
:104C1800594C0008594C0008594C0008514C0008E0
:104C2800012387F84330BCE0042387F84330B8E019
:104C3800082387F84330B4E0102387F84330B0E006
:104C4800202387F84330ACE0402387F84330A8E0BE
:104C5800802387F84330A4E07B691B688F4A93421E
:104C680030D18D4B5B6D03F00703052B26D801A2CD
:104C780052F823F0954C00089D4C0008A54C0008FC
:104C8800AD4C0008B54C0008BD4C0008002387F85F
:104C9800433086E0042387F8433082E0082387F80E
:104CA80043307EE0102387F843307AE0202387F8EA
:104CB800433076E0402387F8433072E0802387F85A
:104CC80043306EE07B691B68754A934230D1724B62
:104CD8005B6D03F00703052B26D801A252F823F0D9
:104CE800014D0008094D0008114D0008194D000834
:104CF800214D0008294D0008002387F8433050E073
:104D0800042387F843304CE0082387F8433048E011
:104D1800102387F8433044E0202387F8433040E0ED
:104D2800402387F843303CE0802387F8433038E05D
:104D38007B691B685B4A934230D1574B9B6D03F0EC
:104D48000703052B26D801A252F823F06D4D000861
:104D5800754D00087D4D0008854D00088D4D0008F3
:104D6800954D0008022387F843301AE0042387F89A
:104D7800433016E0082387F8433012E0102387F801
:104D880043300EE0202387F843300AE0402387F8B9
:104D9800433006E0802387F8433002E0802387F819
:104DA80043307B691B683F4A934240F0F88097F88C
:104DB8004330202B46DC022BC0F28280023B1E2BA4
:104DC8007ED801A252F823F0534E0008C94E0008BD
:104DD8005B4E0008C94E0008C94E0008C94E0008BD
:104DE8006B4E0008C94E0008C94E0008C94E00089D
:104DF800C94E0008C94E0008C94E0008C94E00082F
:104E08007B4E0008C94E0008C94E0008C94E00086C
:104E1800C94E0008C94E0008C94E0008C94E00080E
:104E2800C94E0008C94E0008C94E0008C94E0008FE
:104E3800C94E0008C94E0008C94E0008C94E0008EE
:104E4800BB4E0008402B37D03AE0FDF725FCF8634D
:104E58003CE007F124031846FDF734FCBB6AFB630A
:104E680034E007F118031846FDF780FDFB69FB6382
:104E78002CE0094B1B6803F02003002B16D0064BCF
:104E88001B68DB0803F00303074A22FA03F3FB63FA
:104E98001CE000BF001401400044025800780040A4
:104EA800007C0040000C00580090D0039D4BFB6331
:104EB8000CE09D4BFB6309E04FF40043FB6305E006
:104EC8000023FB63012387F8423000BFFB6B002BF4
:104ED80000F0DE817B695B6A944A32F813301A4627
:104EE800FB6BB3FBF2F33B637B695A6813465B00C9
:104EF80013443A6B9A4205D37B695B681B033A6B90
:104F08009A4203D9012387F84230C1E1FB6B0022A2
:104F1800BB60FA607B695B6A844A32F813309BB2E3
:104F280000223B607A60D7E90023D7E90201FBF74A
:104F3800AFF902460B46104619464FF000024FF0F3
:104F480000030B0243EA10630202796949684908C1
:104F580000200C46054612EB040843EB05097B6963
:104F68005B6800229A46934652465B46404649464D
:104F7800FBF78EF902460B461346BB63BB6BB3F5D2
:104F8800407F08D3BB6BB3F5801F04D27B691B68D5
:104F9800BA6BDA607CE1012387F8423078E17B69FB
:104FA800DB69B3F5004F40F0C58097F84330202BFC
:104FB80048DC002B7BDB202B79D801A252F823F0A8
:104FC800535000085B500008B7500008B75000085D
:104FD80063500008B7500008B7500008B7500008E1
:104FE80073500008B7500008B7500008B7500008C1
:104FF800B7500008B7500008B7500008B75000086D
:1050080083500008B7500008B7500008B750000890
:10501800B7500008B7500008B7500008B75000084C
:10502800B7500008B7500008B7500008B75000083C
:10503800B7500008B7500008B7500008B75000082C
:10504800A9500008402B2ED031E0FCF7EFF8F863A8
:1050580033E0FCF701F9F8632FE007F12403184661
:10506800FDF730FBBB6AFB6327E007F1180318461E
:10507800FDF77CFCFB69FB631FE02D4B1B6803F00D
:105088002003002B09D02A4B1B68DB0803F003031D
:10509800244A22FA03F3FB630FE0224BFB630CE084
:1050A800214BFB6309E04FF40043FB6305E0002359
:1050B800FB63012387F8423000BFFB6B002B00F035
:1050C800E7807B695B6A194A32F813301A46FB6B32
:1050D800B3FBF2F35A007B695B685B081A447B698F
:1050E8005B68B2FBF3F3BB63BB6B0F2B16D9BB6BCF
:1050F800B3F5803F12D2BB6B9BB223F00F03FB8644
:10510800BB6B5B089BB203F007039AB2FB8E134399
:10511800FB867B691B68FA8EDA60B9E0012387F8A1
:105128004230B5E00090D00300093D00008200083D
:105138000044025897F84330202B49DC002B7CDBD5
:10514800202B7AD801A252F823F000BFDF510008C3
:10515800E75100084352000843520008EF51000885
:10516800435200084352000843520008FF51000808
:1051780043520008435200084352000843520008B3
:105188004352000843520008435200080F520008D7
:105198004352000843520008435200084352000893
:1051A8004352000843520008435200084352000883
:1051B8004352000843520008435200084352000873
:1051C8004352000843520008435200083552000871
:1051D800402B2ED031E0FCF729F8F86333E0FCF7D8
:1051E8003BF8F8632FE007F124031846FDF76AFA45
:1051F800BB6AFB6327E007F118031846FDF7B6FB07
:10520800FB69FB631FE02D4B1B6803F02003002B99
:1052180009D02A4B1B68DB0803F00303284A22FA4B
:1052280003F3FB630FE0264BFB630CE0254BFB63AA
:1052380009E04FF40043FB6305E00023FB6301230F
:1052480087F8423000BFFB6B002B21D07B695B6A7B
:105258001D4A32F813301A46FB6BB3FBF2F27B6936
:105268005B685B081A447B695B68B2FBF3F3BB635A
:10527800BB6B0F2B09D9BB6BB3F5803F05D2BB6B5A
:105288009AB27B691B68DA6002E0012387F8423032
:105298007B690122A3F86A207B690122A3F86820B0
:1052A8007B6900225A677B6900229A6797F8423027
:1052B80018464837BD46BDE8B08F00BF00440258C5
:1052C8000090D00300093D000082000880B483B03C
:1052D80000AF78607B689B6A03F00803002B0AD054
:1052E8007B681B685B6823F400417B689A6B7B686A
:1052F8001B680A435A607B689B6A03F00103002B12
:105308000AD07B681B685B6823F400317B68DA6A23
:105318007B681B680A435A607B689B6A03F0020338
:10532800002B0AD07B681B685B6823F480317B689C
:105338001A6B7B681B680A435A607B689B6A03F098
:105348000403002B0AD07B681B685B6823F4802168
:105358007B685A6B7B681B680A435A607B689B6A48
:1053680003F01003002B0AD07B681B689B6823F4AA
:1053780080517B68DA6B7B681B680A439A607B689C
:105388009B6A03F02003002B0AD07B681B689B688C
:1053980023F400517B681A6C7B681B680A439A6087
:1053A8007B689B6A03F04003002B1AD07B681B685C
:1053B8005B6823F480117B685A6C7B681B680A431E
:1053C8005A607B685B6CB3F5801F0AD17B681B68E9
:1053D8005B6823F4C0017B689A6C7B681B680A438E
:1053E8005A607B689B6A03F08003002B0AD07B68B5
:1053F8001B685B6823F400217B68DA6C7B681B6898
:105408000A435A6000BF0C37BD465DF8047B7047FD
:1054180080B598B002AF78607B680022C3F890200E
:10542800FBF71AFC78657B681B681B6803F00803A8
:10543800082B2FD16FF07E4300937B6D00224FF431
:105448000011786800F08EF80346002B22D07B68A4
:105458001B68BB63BB6B53E8003F7B637B6B23F02C
:1054680080033B657B681B681A463B6D7B643A6426
:10547800396C7A6C41E80023FB63FB6B002BE6D1A7
:105488007B682022C3F888207B68002283F8842068
:10549800032363E07B681B681B6803F00403042B89
:1054A80049D16FF07E4300937B6D00224FF4800159
:1054B800786800F057F80346002B3CD07B681B68DF
:1054C8007B627B6A53E8003F3B623B6A23F490733C
:1054D800FB647B681B681A46FB6C3B63FA62F96ADB
:1054E8003A6B41E80023BB62BB6A002BE6D17B68BC
:1054F8001B6808333B613B6953E8003FFB60FB686E
:1055080023F00103BB647B681B680833BA6CFA613B
:10551800BB61B969FA6941E800237B617B69002BAB
:10552800E5D17B682022C3F88C207B68002283F8B1
:105538008420032312E07B682022C3F888207B683C
:105548002022C3F88C207B680022DA667B68002260
:105558001A677B68002283F884200023184658378E
:10556800BD4680BD80B584B000AFF860B9603B60CF
:105578001346FB714FE0BB69B3F1FF3F4BD0FBF71C
:105588006BFB02463B68D31ABA699A4202D3BB69DD
:10559800002B01D103234EE0FB681B681B6803F056
:1055A8000403002B37D0BB68802B34D0BB68402B5A
:1055B80031D0FB681B68DB6903F00803082B10D1A6
:1055C800FB681B6808221A62F86800F039F8FB6863
:1055D8000822C3F89020FB68002283F88420012366
:1055E80029E0FB681B68DB6903F40063B3F5006F0F
:1055F80011D1FB681B684FF400621A62F86800F06A
:105608001FF8FB682022C3F89020FB68002283F86B
:10561800842003230FE0FB681B68DA69BB6813402A
:10562800BA689A420CBF01230023DBB21A46FB7901
:105638009A42A0D0002318461037BD4680BD00000E
:1056480080B495B000AF78607B681B687B637B6B28
:1056580053E8003F3B633B6B23F49073FB647B6828
:105668001B681A46FB6C3B64FA63F96B3A6C41E8B9
:105678000023BB63BB6B002BE6D17B681B68083338
:105688003B623B6A53E8003FFB61FA691E4B1340DB
:10569800BB647B681B680833BA6CFA62BB62B96A80
:1056A800FA6A41E800237B627B6A002BE5D17B68BC
:1056B800DB6E012B18D17B681B68FB60FB6853E825
:1056C800003FBB60BB6823F010037B647B681B68EA
:1056D8001A467B6CBB617A617969BA6941E8002333
:1056E8003B613B69002BE6D17B682022C3F88C2004
:1056F8007B680022DA667B6800225A6700BF54374D
:10570800BD465DF8047B7047FEFFFFEF80B584B0AF
:1057180000AF78607B689B6BFB60FB680022A3F896
:105728005E20F868FFF754F800BF1037BD4680BD0B
:1057380080B588B000AF78607B681B68FB60FB6849
:1057480053E8003FBB60BB6823F04003FB617B6804
:105758001B681A46FB69BB617A617969BA6941E8D5
:1057680000233B613B69002BE6D17B682022C3F80C
:1057780088207B6800229A677868FFF71FF800BFC7
:105788002037BD4680BD80B483B000AF786000BFCD
:105798000C37BD465DF8047B704780B483B000AF1A
:1057A800786000BF0C37BD465DF8047B704780B455
:1057B80083B000AF786000BF0C37BD465DF8047B4E
:1057C800704780B485B000AF78607B6893F8843008
:1057D800012B01D1022327E07B68012283F8842072
:1057E8007B682422C3F888207B681B681B68FB60E1
:1057F8007B681B681A687B681B6822F001021A60C4
:10580800FB6823F00053FB607B6800225A667B68C4
:105818001B68FA681A607B682022C3F888207B68B6
:10582800002283F88420002318461437BD465DF80B
:10583800047B704780B584B000AF786039607B68BE
:1058480093F88430012B01D102232DE07B680122DB
:1058580083F884207B682422C3F888207B681B682F
:105868001B68FB607B681B681A687B681B6822F0F2
:1058780001021A607B681B689B6823F060417B68A3
:105888001B683A680A439A60786800F04FF87B68AA
:105898001B68FA681A607B682022C3F888207B6836
:1058A800002283F88420002318461037BD4680BDA7
:1058B80080B584B000AF786039607B6893F8843035
:1058C800012B01D102232DE07B68012283F884207B
:1058D8007B682422C3F888207B681B681B68FB60F0
:1058E8007B681B681A687B681B6822F001021A60D3
:1058F8007B681B689B6823F060617B681B683A685B
:105908000A439A60786800F011F87B681B68FA68A7
:105918001A607B682022C3F888207B68002283F8FD
:105928008420002318461037BD4680BD80B485B05A
:1059380000AF78607B685B6E002B08D17B68012222
:10594800A3F86A207B680122A3F8682031E01023BD
:10595800FB731023BB737B681B689B685B0EDBB211
:1059680003F007037B737B681B689B685B0FDBB2E4
:1059780003F007033B73BB7B3A7B11498A5C02FB4C
:1059880003F33A7B0F498A5C93FBF2F39AB27B6884
:10599800A3F86A20FB7B7A7B09498A5C02FB03F344
:1059A8007A7B08498A5C93FBF2F39AB27B68A3F886
:1059B800682000BF1437BD465DF8047B704700BF00
:1059C800188200082082000880B586B000AF786091
:1059D800FBF742F938617B68002B01D1012316E3FC
:1059E8007B681B68664A93424AD07B681B68654A95
:1059F800934245D07B681B68634A934240D07B68DA
:105A08001B68624A93423BD07B681B68604A93429A
:105A180036D07B681B685F4A934231D07B681B682D
:105A28005D4A93422CD07B681B685C4A934227D01E
:105A38007B681B685A4A934222D07B681B68594A84
:105A480093421DD07B681B68574A934218D07B68E5
:105A58001B68564A934213D07B681B68544A93428A
:105A68000ED07B681B68534A934209D07B681B6839
:105A7800514A934204D07B681B68504A934201D133
:105A8800012300E00023002B00F03B817B68022209
:105A980083F835207B68002283F834207B681B68F4
:105AA800374A93424AD07B681B68364A934245D0AE
:105AB8007B681B68344A934240D07B681B68334A32
:105AC80093423BD07B681B68314A934236D07B684F
